:100000000C9443080C946B080C946B080C946B08CC
:100010000C946B080C946B080C946B080C946B0894
:100020000C946B080C946B080C946B080C946B0884
:100030000C946B080C946B080C946B080C946B0874
:100040000C9451180C946B080C94C1180C949B18C8
:100050000C946B080C946B080C946B080C946B0854
:100060000C94F3180C946B0800407A10F35A00A01B
:10007000724E18090010A5D4E80000E87648170071
:1000800000E40B54020000CA9A3B000000E1F505B1
:10009000000080969800000040420F000000A086FB
:1000A00001000000102700000000E803000000002D
:1000B0006400000000000A000000000001000000D1
:1000C00000002C76D888DC674F0823DFC1DFAE59EB
:1000D000E1B1B796E5E3E453C63AE651997696E87E
:1000E000E6C28426EB898C9B62ED407C6FFCEFBC02
:1000F0009C9F40F2BAA56FA5F490055A2AF75C932D
:100100006B6CF9676DC11BFCE0E40D47FEF520E662
:10011000B500D0ED902E0300943577050080841E45
:10012000080000204E0A000000C80C333333330FA0
:10013000986E12831141EF8D2114893BE65516CF3D
:10014000FEE6DB18D1844B381BF77C1D901DA4BB49
:10015000E424203284725E228100C9F124ECA1E5FE
:100160003D27BF00040305050305061216FFFC0E1C
:10017000FC0EFC023104BB0EAA20060030960021C2
:100180000AC2199AF060228A002209A5309720C17C
:100190000B012320AA11AA14121612161273207131
:1001A0002013121612161273207120131216121633
:1001B0001204241D09D6A91456732112A124682201
:1001C0008AAC8C2A8424A42262E2A62C3008002562
:1001D00023AE15C2412423A2484491888494888484
:1001E0001885B0AC0899848890882211354A6484B7
:1001F0002800261DAC15B642672622262247573610
:1002000031212223212244223433526331433327C4
:1002100006A1348F5028104492991322212221A242
:100220007F23222313291144969910A3444644FFA7
:100230004244422406002A0EE5F49E9222C224C4BF
:10024000224908002B0E4815AA23A6CDC1818C98FF
:1002500036002C09A2B495401121012D0625B09A33
:10026000502E06421496402F0EC51196A313192541
:10027000324A64B4013011A815AA4263A242881F11
:10028000498888D89000310AA519AA7350A3FF00A5
:100290003211A815AA427221242635B457620707E5
:1002A000023314A815AA5272204424253445364638
:1002B00044336143023418A911AA26364524212368
:1002C0002223A2464248E2E0804C4E05003514A8A5
:1002D00015AA707121266672213326464473305266
:1002E000023614A815AA42732143A662E44288513B
:1002F0008D840D09003712A815AAF0404C4A999434
:1003000098949894982A003816A815AA42633152F6
:10031000442421226231524454326143023915A8E7
:1003200015AA42632153C448E264424C8C46E2A4BD
:1003300004003A07421596404C3B0AA2B595404C42
:100340001121013C0E2815AA264442332437C64CFD
:10035000003D09A758AEF0EEE0003E0F2815AA2098
:10036000C66C4E688684480C003F13C715AA5171AD
:1003700020432334B3484A3D90940C00402E30B6BD
:10038000C966783035362329224311222132314281
:10039000A384444686444644424446444244270794
:1003A00042221353E3E307925600411BCC11B625BA
:1003B0002A49482722262225A4D141CCC1889888E1
:1003C000988420A100421ECB15B6701073202235F0
:1003D000212621262125722072302156C7ECC0E249
:1003E0004004004318CC15BA5475203235215729E2
:1003F000AAE9A89CC4D4C881540D004418CC15BAED
:10040000702073302236212721C8EF24C4260E46DF
:100410000E64004512CA19B6F041A08607120712F1
:10042000821A1E1C184610C919B2F0C04EBB838830
:10043000830839BD03471ACD15BE647530323621A5
:100440005848ABEC41A084A0C4D8C80191850048AD
:100450000ECB15BA20C777070FEAF84E004907C23E
:10046000199AF0034A0EC811AAA63F23222A99B06E
:1004700021014B1FCC19B6203621352234233324D9
:10048000322531566726322533243423352236214E
:10049000374C0CC915AE20A7FFDDC101014D1ECEA2
:1004A00015C2204A5A6878761066212441212441D9
:1004B000A28444094D480C4742440A4E1ACB15BA4F
:1004C0002057666545214422432243234223422488
:1004D00041E5AC4E004F1ACD15BE5476203335227F
:1004E000273157C965DD849CC8D4CC815811005090
:1004F00014CA19B6701072202155C6EAA0E2204431
:10050000500F01511EEDF5BD5476203335222731B1
:1005100057C96591C4849084C810CD815885AC04B6
:10052000005218CB15BA702072302156C7ECC0E2C9
:1005300040444C424C428E3B015316CA15B643749C
:10054000103154565857B890AC68E220C604005495
:100550000CCA15B2F0C04850FF23005510CB15BA95
:1005600020C7FF4E424AE440A80600561BCC11B6F5
:1005700020482821262226222623A45722622262EE
:100580002272849452005728D015CA20254525454B
:100590002545442421432322131223A2BF91109105
:1005A000109210911092088A901A1AD30D00581CBC
:1005B000CB15B620472721253233A34A426E704E11
:1005C000424A46668994841C9D005917CC11B62076
:1005D0004828212622262324343225224729AA57B7
:1005E000005A0FCA15B2F0C0504E77733A3C3830FB
:1005F0005B0C4492957030A2FF2707015C0EC51179
:100600009620A34846918C46321A5D0C4492957010
:1006100010A2FF2707035E0EC7F4A613352321227D
:10062000A18646005F084B90ADF041006008647001
:100630009320A30061164915AE61B242486CE46292
:10064000464248424862848244006216C915AE2080
:10065000A70B928388190929AE6A240E2224480028
:1006600063104815AA52722143A69D8CC449050007
:100670006415C915AEA7130A898308992AAE2464A4
:10068000260E42280465114815AA4263214474507D
:10069000263623714202660FC6119A334222247213
:1006A0005022A49F00671AC995AD422171102144C0
:1006B000C59584CCC44108859C848CC8D10C006845
:1006C0000EC815AA20A60B8A031A227E246909C225
:1006D0001592407470606A0D448E91A25444FFC913
:1006E0008104006B17C815A620A61B0911153244FA
:1006F000351232224A26642464066C07C21592F031
:10070000036D1B4E15C220414271703033432444A7
:1007100024442444244424442444A4006E0D481555
:10072000AA2041714043C48F046F124915AE527321
:10073000222321C595848CC84D09007017C995AD39
:1007400020417210312321C5558DC4418404899CF8
:1007500076007115C995AD422171102153C595845C
:10076000CCC44108859C0E720C45159A204151223B
:10077000A36F0073104715A642721043655345736B
:10078000104202740EA6119A22A4E4A044488F6875
:1007900006750C4815AA20C4DF1C50500876114875
:1007A00015AA20C44842446F4282A8C46400771C42
:1007B0004C15BA2023432343A342445F8444C844D6
:1007C0008444048D4C898889C80078134815AA2070
:1007D000543221224325264523223152247913C83D
:1007E00095A920C44842446F4282A8C4349A1A0290
:1007F0007A0B4715A6F04A48AF0E0E7B0E468E992F
:1008000024A34837AA14E995027C08429695F0077C
:10081000017D0F46929920A548576A14E98D220060
:100820007E0A6894AA3172503201A0060030960008
:10083000A10AC299994015717030A21BC8D5A9159B
:100840001754722111411223122312231224112151
:100850007152141704A316A911AA43642224212457
:100860002128662527A6EAA0A20200A40EE874AA01
:1008700020743021A217074302A514A815AA20440A
:100880002421A23724073132073162DA00A6094257
:100890009695F0F0E000A71B4896A94263214464B6
:1008A0005523312153542331225235564424614378
:1008B00002A80845909B204121A924CD15BE5426AD
:1008C000251319123313119346242846245024501B
:1008D0002450268B989990C81829B12200AA0F0598
:1008E000D59E311122321132A122AA00AB0EC7547B
:1008F000A622A127123212321202AC09A974AEF05C
:10090000804E03AD0625B09A50AE28CD11BA5426BC
:100910002513191252121113142213142213142224
:100920005323131224934548504448648C9458111F
:1009300000AF0625909750B00CA5149F312131339C
:10094000213101B1106815AA23A6E6E040464CED1E
:10095000C18100B20D05B19A31612223A2E4600089
:10096000B30E05B19A3161A24622E4620200B409D5
:1009700064709322A10400B50FC895A920C48F4AC2
:100980000E2C24C83403B6294896A96231124112AC
:100990004112411241124112321223121412141246
:1009A000141214121412141214121412141201B785
:1009B0000642949240B80AA590952133446101B94A
:1009C0000904B19A7230A207BA0D05D59E312131C2
:1009D0002333213156BB0FC754A6202123212321C5
:1009E00022A12700BC22AE11BE2226422642A548E3
:1009F0004C484C462646264689C8980899842A11B0
:100A00001B3121310900BD20AE11BE2226422642F3
:100A1000A5484C484C46624626A244458894465216
:100A2000425242354205BE25AE11BE312652251234
:100A300022242524262414A226A224466444644C9D
:100A4000844C4295888D9890980400BF13C795A94F
:100A500023250F24A56866910CCD81440500C01E96
:100A60004C12B623AB1E4E5492904E444C444A480E
:100A7000A38398831131113109414201C11E4C12E7
:100A8000B627A91E4E5492904E444C444A48A38324
:100A900098831131113109414201C2204C12B6250F
:100AA0004927220F252A49482722262225A4D14159
:100AB000CCC1889888988420A100C3234C12B62406
:100AC0001216211116220F262A49482722262225EE
:100AD000A4D141CCC1889888988420A100C4202C3E
:100AE00012B6232226220F252A494827222622250C
:100AF000A4D141CCC1889888988420A100C5202C1D
:100B000012B62519121812292A4948272226222509
:100B1000A4D141CCC1889888988420A100C623D054
:100B200015CA7540754024212B212A222A222973B7
:100B300010237310737810282428242775407520FB
:100B4000C71D4C96B95475203235215729AAE9A8FA
:100B50009CC4D4C88154A1AC9C841C1500C8154AFF
:100B60001AB622A9FCE041A08607120712821A1EBB
:100B70001C18C9154A1AB626A7FCE041A086071220
:100B80000712821A1E1C18CA174A1AB624472522B1
:100B90007CF02050C303890309410D0F0E0CCB16C6
:100BA0002A1AB6A24844F8E041A08607120712822A
:100BB0001A1E1C18CC0B44129A20A34C44FF0FCDD4
:100BC0000C441A9A22A14C44FF4F00CE0E46129AB2
:100BD0002243111428A4FF2700CF0D26129A204289
:100BE0002228A4FF2700D022CE0DBA72207530240F
:100BF0003623272328227820752025222822282200
:100C00002723367330742003D1214B16BA241215D2
:100C1000211115222E576665452144224322432384
:100C20004223422441E5AC4E00D21D4D16BE23ACFA
:100C30001EB0EC40666A444E62AE92CBBA0939915E
:100C4000A99903B12200D31D4D16BE27AA1EB0ECF0
:100C500040666A444E62AE92CBBA093991A99903B3
:100C6000B12200D41F4D16BE264A28220F557620E9
:100C7000333522273157C965DD849CC8D4CC8158CF
:100C80001100D5224D16BE251217211117220F561D
:100C90007620333522273157C965DD849CC8D4CCF2
:100CA00081581100D61F2D16BE242227220F5576FB
:100CB00020333522273157C965DD849CC8D4CC81C7
:100CC000581100D7142A11AA2026212423224527AF
:100CD00047252223242126D829CE11BE5522733040
:100CE0003325244532243121242321232421132593
:100CF000212225A16A644C666A44E22044A60800C9
:100D0000D9134B16BA23AA1E408EFF9D8494C88126
:100D1000500D00DA134B16BA26A81E428EFF9D8492
:100D200094C881500D00DB144B16BA254826222D9D
:100D3000C7FF4E424AE440A80600DC142B16BA2234
:100D40002324232DC7FF4E424AE440A80600DD1AA3
:100D50004C12B627A91E449050424C444C46486859
:100D6000644A448E5254AF00DE16CA15B220A8F071
:100D700020E44042AA8CD541C54188A04200DF1240
:100D8000C715A6325321C38B098909195E584C0037
:100D9000E018C915AE22A8DA648590D8C8C58C843D
:100DA000908490C408058900E119C915AE24A61ED7
:100DB000C0648590D8C8C58C84908490C408058987
:100DC00000E21AC915AE234624226CB242486CE4F4
:100DD0006246424842486284824400E31DC915AE1F
:100DE000221213211113226DB242486CE462464272
:100DF0004842486284824400E41BC915AE21222384
:100E0000220F66B242486CE462464248424862841D
:100E1000824400E51CC915AE23161215122665B2D0
:100E200042486CE46246424842486284824400E69A
:100E30001E4E19C6614132721021A46A48E2E04098
:100E4000464C484C68A6E4408222820400E715C85C
:100E500095A952722143A69D8CC449919C8C840C07
:100E60000D00E814C815AA22A798C64288E8A04C2D
:100E70006C46E2840400E914C815AA24A59CC64265
:100E800088E8A04C6C46E2840400EA15C815AA2341
:100E90004523224B6321447450263623714202EBD2
:100EA00015C815AA21A23D108D8510D14199D88C65
:100EB000C4090900EC0CC4119220A34A44FF0200AB
:100EC000ED0CC4119222A14E44FF0200EE0DC60D9E
:100ED000922243212228A47F02EF0CC511922041C7
:100EE000212BA37F02F018C915AE21282134152229
:100EF0005573222321C595848CC84D0900F113C870
:100F000015AA2292422224445482E28086881F0934
:100F1000F214C915AE22A8BCE64446428A2B091930
:100F2000919B1200F315C915AE25A61EA0E64446F6
:100F3000428A2B0919919B1200F416C915AE23465B
:100F400024225D73222321C595848CC84D0900F5A8
:100F500019C915AE221213211113225E7322232107
:100F6000C595848CC84D0900F616C915AEA2464435
:100F70001EACE64446428A2B0919919B1200F70DDC
:100F80000835AA23267B70202B2603F8184B11AEB8
:100F900034227210A30D890A110911111A6D0E4223
:100FA000448600F90EC815AA22A75488BF39A0A00C
:100FB00010FA0DC815AAA5AD107F73404121FB1092
:100FC000C815AA2345232229C4DF1C505008FC0F52
:100FD000C815AA21A23D88107F73404121FD154804
:100FE00096A9A5AD10230911BD0909A212D3686AFB
:100FF0000800FE184996AD20A70B9283881909298D
:10100000AE6A240E222448E4B403FF174896A921AF
:10101000A23D8810230911BD0909A212D3686A08EC
:101020000000000004FFFF00000000000024002773
:10103000002A0000000000250028002B000000000E
:10104000002300260029000404040404040404020C
:101050000202020202030303030303010204081055
:101060002040800102040810200102040810200022
:101070000000080002010000030407000000000057
:1010800000000000121A11241FBECFEFD8E0DEBF0F
:10109000CDBF12E0A0E0B1E0E2E3F2E502C00590CE
:1010A0000D92A637B107D9F725E0A6E7B2E001C057
:1010B0001D92AE37B207E1F718E0C3E4D8E004C0F0
:1010C0002197FE010E940725C234D107C9F70E946B
:1010D000311B0C9417290C940000662329F06A3008
:1010E00019F0862F90E008958FEF9FEF0895CF922B
:1010F000DF92EF92FF920F931F93CF93DF93EC0158
:10110000842F8770E1E0F0E0082E01C0EE0F0A9412
:10111000EAF73E2F7E019AE7E90EF11CD7019C9178
:1011200010E0923018F41E2F913029F150E0487FE2
:10113000E9ADFAADC880D980D60150969C91949FB4
:101140006001959FD00C11246C0D7D2D711DDF0168
:10115000A60FB71F011115C08C91812B83278D938A
:101160002150D1F7DF91CF911F910F91FF90EF9018
:10117000DF90CF90089530E0D9CF110F330F2223A5
:1011800089F39C91912B93279C938F5F87702150BB
:101190008111F3CF9DADA90FB11DF7019081923060
:1011A00028F4913009F031E011E0E9CF31E0E7CFE8
:1011B00080E0089580E008959B01DC011896ED9190
:1011C000FC9141E067E10994833081F028F481309B
:1011D00099F08230A9F008958730A9F08830C9F0DD
:1011E0008430B1F4809180008F7D03C080918000B5
:1011F0008F7780938000089584B58F7784BD08959C
:1012000084B58F7DFBCF8091B0008F778093B00045
:1012100008958091B0008F7DF9CFCF93DF93282F71
:1012200030E0F901E159FF4E8491F901E55AFF4E92
:10123000D491F901E95BFF4EC491CC23A1F0811157
:101240000E94E408EC2FF0E0EE0FFF1FE35CFF4E7E
:10125000A591B491EC91ED2381E090E009F480E058
:10126000DF91CF91089580E090E0FACF1F93CF9364
:10127000DF93282F30E0F901E159FF4E8491F90105
:10128000E55AFF4ED491F901E95BFF4EC491CC239E
:10129000A9F0162F81110E94E408EC2FF0E0EE0F68
:1012A000FF1FED5CFF4EA591B4918FB7F894EC91C0
:1012B000111108C0D095DE23DC938FBFDF91CF9151
:1012C0001F910895DE2BF8CFCF93DF9390E0FC01C0
:1012D000E55AFF4E2491895B9F4EFC01849188233F
:1012E000C9F090E0880F991FFC01E75DFF4EA591C2
:1012F000B491FC01ED5CFF4EC591D49161110DC01C
:101300009FB7F8948C91209582238C938881282311
:1013100028839FBFDF91CF910895623051F49FB72A
:10132000F8943C91822F809583238C93E8812E2B17
:10133000EFCF8FB7F894EC912E2B2C938FBFEACF81
:101340003FB7F8948091AA039091AB03A091AC03AE
:10135000B091AD0326B5A89B05C02F3F19F00196AB
:10136000A11DB11D3FBFBA2FA92F982F8827BC01FF
:10137000CD01620F711D811D911D42E0660F771F27
:10138000881F991F4A95D1F708958F929F92AF9227
:10139000BF92CF92DF92EF92FF926B017C010E948D
:1013A000A0094B015C01C114D104E104F104B9F0BE
:1013B0000E94A009681979098A099B09683E73404F
:1013C0008105910580F321E0C21AD108E108F108F6
:1013D00088EE880E83E0981EA11CB11CE4CFFF901C
:1013E000EF90DF90CF90BF90AF909F908F90089537
:1013F000AF92BF92CF92DF92EF92FF920F931F9323
:10140000CF93DF936C017B018B01040F151FEB0160
:101410005E01AE18BF08C017D10759F06991D60117
:10142000ED91FC910190F081E02DC6010995892B89
:1014300079F7C501DF91CF911F910F91FF90EF9048
:10144000DF90CF90BF90AF900895FC01538D448DF5
:10145000252F30E0842F90E0821B930B541710F05F
:10146000CF96089501970895FC01918D828D98176C
:1014700061F0A28DAE0FBF2FB11D5D968C91928D44
:101480009F5F9F73928F90E008958FEF9FEF089575
:10149000FC01918D828D981731F0828DE80FF11D3E
:1014A000858D90E008958FEF9FEF0895FC01918D59
:1014B000228D892F90E0805C9F4F821B91098F7352
:1014C000992708958EEA93E00E94560A21E0892B1D
:1014D00009F420E0822F089580E090E0892B29F024
:1014E0000E94620A81110C9400000895FC01A48DF1
:1014F000A80FB92FB11DA35ABF4F2C91848D90E036
:1015000001968F739927848FA689B7892C93A08918
:10151000B1898C91837080648C93938D848D9813A2
:1015200006C00288F389E02D80818F7D8083089535
:10153000EF92FF920F931F93CF93DF93EC0181E023
:10154000888F9B8D8C8D98131AC0E889F9898081CA
:1015500085FF15C09FB7F894EE89FF896083E889FD
:10156000F98980818370806480839FBF81E090E0EF
:10157000DF91CF911F910F91FF90EF900895F62E7C
:101580000B8D10E00F5F1F4F0F731127E02E8C8D16
:101590008E110CC00FB607FCFACFE889F98980815B
:1015A00085FFF5CFCE010E94760AF1CFEB8DEC0FCF
:1015B000FD2FF11DE35AFF4FF0829FB7F8940B8F78
:1015C000EA89FB8980818062CFCFCF93DF93EC01E2
:1015D000888D8823B9F0AA89BB89E889F9898C911B
:1015E00085FD03C0808186FD0DC00FB607FCF7CFD7
:1015F0008C9185FFF2CF808185FFEDCFCE010E94D7
:10160000760AE9CFDF91CF910895089585ED809313
:10161000BC008091BC0084FDFCCF1092290308958A
:1016200020910303260F3327331F21323105ECF4B9
:1016300020912903FC0190E080E0243069F082E0F1
:101640000895A09103032191AC014F515D4FA40F68
:10165000B52FB11D2C930196861798F38091030343
:10166000680F6093030380E0089581E00895089572
:1016700008950895E091DE028091DD02E81730F4CC
:10168000F0E0E354FD4F808190E008958FEF9FEFED
:1016900008959091DE028091DD022FEF3FEF9817C1
:1016A00048F4E92FF0E0E354FD4F208130E09F5FE4
:1016B0009093DE02C90108958091DD029091DE02CF
:1016C000891B990B0895CF92DF92EF92FF920F93AF
:1016D0001F93CF93DF937C01CB018A012091BC0241
:1016E000222389F0EB016B01C40ED51ECC15DD055C
:1016F00069F06991D701ED91FC910190F081E02DA5
:10170000C7010995F3CF642F0E94100BC801DF9128
:10171000CF911F910F91FF90EF90DF90CF900895A0
:10172000CF93DF931F92CDB7DEB769832091BC02C0
:101730002223F9F02091DF02203258F021E030E03E
:10174000FC013383228390E080E00F90DF91CF9102
:1017500008958091E002E82FF0E0E456FD4F998172
:1017600090838F5F8093E0028093DF0281E090E0BE
:10177000ECCF61E0CE0101960E94100BF7CFDC01A7
:101780001A96ED91FC9130E020E00994DC01169668
:10179000ED91FC9130E020E040E069E10994DC014A
:1017A0001696ED91FC9130E020E040E068E109946C
:1017B0009A01DC011696ED91FC91462F67E10994A0
:1017C000EF92FF920F931F93CF93DF931F92CDB7AA
:1017D000DEB77C018B01D8016C91673129F150F49F
:1017E0006531A0F40F90DF91CF911F910F91FF9081
:1017F000EF9008956A3118F16E3FA1F7F801418129
:10180000498369E2C7010E94BF0B0BC0F801418107
:101810004983D7011696ED91FC9130E020E0C70195
:1018200009950E5F1F4FD7CFF80181818983AE01E3
:101830004F5F5F4F61E0C7010E94D80BF2CF0F5F8F
:101840001F4FD7011696ED91FC9130E020E040E06B
:10185000C7010995C0CF462FDC011696ED91FC918A
:1018600030E020E066E10994462FDC011696ED9108
:10187000FC9130E020E065E10994EF92FF920F9334
:101880001F93CF93DF93EC01042F79016D3009F49E
:1018900046C050F46B30C9F1693009F49FC06A301A
:1018A00009F465C080E046C06E3009F452C06F3064
:1018B00099F70E94CF0BF7011381110F110F110F30
:1018C0006C89160F60E4CE010E94340C612F629582
:1018D0006F706061CE010E94340C612F6F70CE0179
:1018E0000E942B0CF7016481606BCE010E942B0CCF
:1018F000F701408151816281660F660F660FCE014C
:101900000E94D80B0150A1F72EC069E171E0442379
:1019100011F064E171E0CE010E94E00B0AC04111B8
:1019200010C06DE071E00E94E00BE881F9818289CE
:101930008C8B81E0DF91CF911F910F91FF90EF9001
:10194000089566E071E00E94E00BE881F9818389E7
:10195000EFCF0E94CF0B61E8CE010E94340C602FC4
:10196000CE010E942B0CCE010E94C60BE2CFEA856D
:10197000FB8530E020E040E068E2CE010995EE8191
:10198000FF8130E020E040E064E1CE01099541E0D4
:101990006BE4CE010E94BF0BE881F981448169E2CA
:1019A000CE010E94BF0B40E06BE4CE010E94BF0B52
:1019B000E881F981448169E2CE010E94BF0B41E0D8
:1019C0006BE4CE010E94BF0BE881F981458169E299
:1019D000CE010E94BF0B6EE171E09DCF83E591E0E7
:1019E000998388831C8AA5CFDC011896ED91FC9120
:1019F00030E020E040E069E10994DC011896ED91C7
:101A0000FC9130E020E040E068E10994CF93DF935F
:101A10001F92CDB7DEB76983BE016F5F7F4F0E9413
:101A2000DC080F90DF91CF910895EF92FF921F9302
:101A3000CF93DF93EC01162F7A010E94FD0C60E436
:101A4000CE010E94060DE885F9859701412F67E1D7
:101A5000CE010995CE01DF91CF911F91FF90EF90BC
:101A60000C94F40CEF92FF921F93CF93DF93EC0151
:101A7000142F7901663181F138F4643109F44BC0D7
:101A8000653179F080E022C06831C9F150F16931E7
:101A9000C9F780919B02882391F1CE010E94F40C3A
:101AA0002EC080919B02882319F0CE010E94F40C75
:101AB000CE010E94FD0C60E0CE010E94060D612F58
:101AC000CE010E94060D81E080939B02DF91CF91B1
:101AD0001F91FF90EF900895642F0E94060D81E002
:101AE000F5CF80919B02882319F0CE010E94F40C5F
:101AF000A701193138F4612FCE010E94150D109203
:101B00009B02EDCF68E1CE010E94150D185188E1CE
:101B1000E80EF11CEDCF8E898F3F11F488E78E8B94
:101B2000E885F9859701412F64E1CE01DF91CF91DE
:101B30001F91FF90EF9009940F93DC01DF963C9189
:101B4000DF97431BD596ED91FC9109950F91089570
:101B5000CF93DF93FC01A081B18183AD982F990FC2
:101B6000990F990F96AF50969C915097903208F02C
:101B70009FE1990F990F990F95AF24AD922F990F6F
:101B8000990F990F97AF51963C915197682F620F1B
:101B90007727771F3617170614F4832F821BEF0160
:101BA000C05CDF4F98832196880F880F880F890FBC
:101BB0008883219680EF888354968D919C915597C8
:101BC000813F910508F48883ED5BFF4F56968C9119
:101BD0008083DF91CF9108950F93FC01EA5BFF4F63
:101BE000308131965081451730F4301738F00417A2
:101BF00028F080E013C03017D0F3FBCFFC01EC5B82
:101C0000FF4F30818B5B9F4FFC018081681740F450
:101C100081E0321718F081E0261758F70F910895E8
:101C20003217C8F3E6CF2F923F924F925F926F9296
:101C30007F928F929F92AF92BF92CF92DF92EF925C
:101C4000FF920F931F93CF93DF93EC014C0184E439
:101C5000880E911CF4011082329720805E01F5E419
:101C6000AF0EB11CF5012082359730806E01F6E48D
:101C7000CF0ED11CF6013082359740807E01F7E40B
:101C8000EF0EF11CF701408234961081329760808C
:101C90003196708032975080012F262D472D652D6B
:101CA000CE010E94EC0DCC58DF4F811114C0188278
:101CB000DF91CF911F910F91FF90EF90DF90CF9028
:101CC000BF90AF909F908F907F906F905F904F905C
:101CD0003F902F90089581E08883552011F0F40102
:101CE0005082621410F4F5016082371410F4F6018A
:101CF00070821415E8F6F7011083DACF0F93DC0138
:101D0000802FFD01EC58FF4F90819923E9F12223A8
:101D1000D9F1223020F0023079F56F5F621B082F75
:101D20000170FD0180FD32C0EA5BFF4F80814817E2
:101D300058F131968081481738F532979081319764
:101D40008081260F2617F0F46917D8F42FEF290F9A
:101D50008217D0F4681708F4682F291708F4922F17
:101D6000961BD796ED91FC91D8970480F581E02DD4
:101D7000292FCD01099508C0033089F64F5F421B1A
:101D8000CECF682F691720F30F910895EC5BFF4FBA
:101D900080816817C8F3319680816817A8F732965A
:101DA000908131978081240F241778F4491760F4CB
:101DB0002FEF290F821740F7481708F4482F2917EB
:101DC00008F4922F941BCDCF482F4917E8F6F2CF95
:101DD000213039F020F0223031F0840F0895860F41
:101DE0000895841B0895861B0895213039F020F052
:101DF000223031F0861B0895840F0895860F0895D0
:101E0000841B08955F926F927F928F929F92AF9200
:101E1000BF92CF92DF92EF92FF920F931F93CF93D7
:101E2000DF935C01162F642EEC01C05BDF4FDC807A
:101E3000ED804C018AE7880E911CFE80FD18C12EB2
:101E4000F11608F4CF2C5B800C85202F4E2D6D2DC4
:101E50008A810E94E80E782E202F4E2D6D2D852D23
:101E60000E94F50E482F662071F08A85F401808368
:101E70002C2D672DC5010E947E0E1F1548F01F19DD
:101E8000E394D12CDACF89858111F7CF8B85EECF02
:101E90001D0D1C83ED82DF91CF911F910F91FF905B
:101EA000EF90DF90CF90BF90AF909F908F907F90FA
:101EB0006F905F900895DC0118964C911897ED9102
:101EC000FC911197249130E0042E02C0359527959E
:101ED0000A94E2F7842F860F883068F031961196C5
:101EE000FC93EE93E49198E0941B01C0EE0F9A9559
:101EF000EAF72E2B885018968C938FEF9FEF01C036
:101F0000880F6A95EAF78095822308950F931F93AF
:101F1000CF93DF938C01EC01C05BDF4F7983688343
:101F20001886FC01EF59FF4F6081CE010E945B0FC4
:101F30008E83F801EE59FF4F6081CE010E945B0F46
:101F40008F83F801E658FF4F90819A8781E09111C5
:101F500080E08B87DF91CF911F910F910895CF93F0
:101F6000C62F0E945B0FC15021E030E001C0220F5C
:101F7000CA95EAF7821BCF910895FC01E60FF11D87
:101F8000849190E0982F88273196E4918E0F911DCF
:101F90000895EF92FF920F931F93CF93DF93FC016D
:101FA000E45BFF4F20813181295E3F4F6F3F710518
:101FB00009F048F561367105D8F080599F4FFC0152
:101FC00080819181280F391FC9010196FC0144913C
:101FD000442309F447C0F90144914617170671F4E8
:101FE0000196DF91CF911F910F91FF90EF9008958F
:101FF0006134710548F382599F4FE1CFFC01849110
:10200000280F311DE1CF8B01FC01EE58FF4FC0813D
:10201000D181C20FD31F7E0160E0C7010E94BD0FB6
:10202000C80FD91F62E0C7010E94BD0FF4E0EF0E98
:10203000F11C8017910780F3FE01849190E0982FA6
:1020400088273196E4918E2B009761F008171907C5
:1020500019F4CE010396C5CFFE013296E491CE0F5E
:10206000D11DEACF90E080E0BCCF0F931F93CF93B8
:10207000DF93109231051092F4048C01D0E0C0E09F
:10208000F80161918F01E091DD04F091DE048BEDA8
:1020900094E009958F3F980749F18E3F2FEF920703
:1020A00079F3BC018BED94E00E94C90F0097E1F039
:1020B000BC018BED94E00E94860F60913E058BE29F
:1020C00095E00E94AF0F8093530560913F058BE22E
:1020D00095E00E94AF0F609140058BE295E00E9471
:1020E000AF0FD82FC80FCCCF80E0FBCF8091310548
:1020F000882329F090915305890FC80FCD1B8C2F91
:10210000DF91CF911F910F9108952DE638E0309324
:10211000DE042093DD040C9435108F929F92AF92D1
:10212000BF92CF92DF92EF92FF920F931F93CF93C4
:10213000DF93EC01062F142F7901FC01E45AFF4FC5
:102140008081813009F46CC008F460C0823009F4E9
:1021500071C0833009F478C0FE01EE5AFF4F00834E
:1021600031961083B701CE010E94C90F009709F480
:10217000D5C07E0120E5E20EF11CBC01CE010E941B
:10218000860FFE01E95AFF4FC0803C966081C7016F
:102190000E94AF0F982EFE01EC59FF4F6081C701DE
:1021A0000E94AF0FB82EFE01EB59FF4F6081C701AF
:1021B0000E94AF0FA82EF701068110160CF086C002
:1021C000D484BC0CB1942D2D4B2D692D82810E949D
:1021D000E80E182FF70182832D2D4B2D692D838159
:1021E0000E94F50E482FF7018383F1E0DF1609F412
:1021F0007BC0DF1698F122E0D21609F47BC083E0A1
:10220000D81609F482C0042F212F2CC0FE01E25BF6
:10221000FF4F0190F081E02DCE010995180F9CCF62
:10222000FE01E25BFF4F0190F081E02DCE010995A8
:10223000081B92CFFE01E25BFF4F0190F081E02D81
:10224000CE010995181B88CFFE01E25BFF4F01907C
:10225000F081E02DCE010995080F7ECF202F210FB0
:102260000C2D080F612FCE010E94EC0D882371F117
:10227000F701148215828E01015A1F4F4E01F0E6BC
:102280008F0E911CF8016081C7010E945B0FB82E70
:10229000F4016081C7010E945B0FD82E40E06B2DD6
:1022A000CE010E94020F41E06D2DCE010E94020F6F
:1022B00061E0C7010E945B0F8111F0CFF7018581BA
:1022C0008C1504F3C658DF4F828588838A2DDF91F1
:1022D000CF911F910F91FF90EF90DF90CF90BF9023
:1022E000AF909F908F900895DC1821E0210F080F88
:1022F0001D0DB8CF81E0982F901B21E0210F8C1984
:1023000001E0040F480F190FADCF2C2D210F842FA2
:10231000801B01E0040F41E0480FA4CF80E0D7CF3D
:10232000FF920F931F93CF93DF93C82FD62F109256
:10233000F4048A01F12CF80161918F01E091DD0430
:10234000F091DE048BED94E009958F3F9807F1F052
:102350008E3F2FEF920779F39C014D2F6C2F8BED61
:1023600094E00E948D1090913705913049F030F043
:10237000923041F0933041F0F80EDDCFC80FFCCF22
:10238000D80FFACFC81BF8CFD81BF6CF8F2DDF910F
:10239000CF911F910F91FF9008952DE638E0309373
:1023A000DE042093DD040C949011CF93DF93EC01B5
:1023B0006CAFEFA9F8AD0190F081E02D0995EFA980
:1023C000F8AD0280F381E02DCE01DF91CF91099429
:1023D000AF92BF92CF92DF92EF92FF920F931F9333
:1023E000CF93DF9300D000D01F92CDB7DEB78C0122
:1023F000DC01DB96AC90DB97DC96EC90DC97ED9102
:10240000FC91B188FE2CD12CC12CD801ED91FC910E
:1024100011978089D9962D913C911C82FD828B83E6
:10242000B8E08B9FC00111248C9DA0018D9D500DA3
:102430009C9D500D1124240F351F3A832983D80108
:102440001496ED91FC919E012F5F3F4F41E06FE0AC
:10245000C8010995F3948F2D8E198A1528F4BFEFC2
:10246000CB1ADB0AFB1488F20F900F900F900F909D
:102470000F90DF91CF911F910F91FF90EF90DF9020
:10248000CF90BF90AF900895CF93DF93EC01862F4C
:10249000683109F461C038F4B901843199F08731A9
:1024A00059F080E006C0693109F478C06032C9F79C
:1024B00081E0DF91CF91089550E08BE494E00E9499
:1024C000630BF6CF8C859D85AE85BF85892B8A2BC6
:1024D0008B2B71F4E881F981A585B0E020EA36E81C
:1024E00041E050E00E94E8246C877D878E879F87BB
:1024F0001092DE021092DD021092E0021092DF02D2
:102500001092290381E080932B0310922A0361E04B
:1025100082E10E94360961E083E10E9436098091E0
:10252000B9008E7F8093B9008091B9008D7F809330
:10253000B90088E48093B80085E48093BC0087E309
:102540009BE0909302038093010388E39BE09093C8
:10255000060380930503ACCF2C853D854E855F85B2
:1025600060E074E284EF90E00E94A72420513109DA
:102570004109510956954795379527952093B800FD
:102580008E8990E09595879591E09093BC02809319
:102590009A021092E0021092DF028ACF2091DF02AD
:1025A000213208F041C0809129038111FCCF809134
:1025B0009A0292E09093290391E090932B039FEF6E
:1025C0009093280310924D0320934C03ACE9B2E0A2
:1025D000ECE2F3E090E029132EC010924E039091AC
:1025E0004E03880F892B80934E0380912A038130FC
:1025F00031F510922A0380914E038093BB008091A5
:10260000BC0083FDF8CF85EC8093BC00809129034A
:102610008230E1F3809128038F3F31F080912803CD
:10262000803211F0809128031092E0021092DF02B4
:102630001092BC023DCF3D9131939F5FCCCF85EE90
:10264000E3CF0F931F93CF93DF938C01C62F642F9B
:10265000CC32E8F4CA3208F041C0C83271F1C93254
:1026600009F442C080E0C034D0F1CF73F801EC0F20
:10267000F11D878D8F3F91F1C031E0F00E940D096F
:1026800021E0892B09F420E0F801228F27C0CD3208
:1026900089F140F384EB8C0F823020F7CF73C00FA9
:1026A000D12FD11D8F8D411133C061E00E9464098B
:1026B00060E08F8D0E94360911C0015E1F4FD0E08F
:1026C000F80181918F018F3F31F061E0D03108F046
:1026D00062E00E946409DF5FD63191F781E0DF910B
:1026E000CF911F910F91089570E090E080E00E94DB
:1026F000C509F4CF85E090E0433010F082E090E02F
:10270000880F991F880F991F05970197F1F7E6CF5A
:1027100062E00E946409E2CF6F927F928F929F9253
:10272000AF92BF92CF92DF92EF92FF920F931F93DF
:10273000CF93DF93609057037090580380905903B4
:1027400090905A038BE5A82E83E0B82E8301D82DF4
:10275000C92DF501C190D190E190F1905F019301F5
:10276000A401C701B6010E94C42287FF02C036013E
:10277000470198014D2F5C2FC701B6010E941C2410
:1027800018161CF48601DE2DCF2DF7E9AF16F3E005
:10279000BF06F9F69301A401B8018D2F9C2F0E946A
:1027A000572220E030E040E05FE30E942124DF91E7
:1027B000CF911F910F91FF90EF90DF90CF90BF903E
:1027C000AF909F908F907F906F900895CF92DF92FF
:1027D000EF92FF920F931F93CF93DF936C01EB0166
:1027E0007B01E40EF51E10E000E0CE15DF0561F080
:1027F0006991D601ED91FC910190F081E02DC60127
:102800000995080F191FF1CFC801DF91CF911F91D2
:102810000F91FF90EF90DF90CF9008950F931F934B
:10282000CF93DF93EC018C010C5F1F4FFC01E0584C
:10283000FF4F0190F081E02DC80109958E3F2FEFE9
:10284000920770F4FE01ED57FF4FCE57DF4F9C010A
:1028500040816881C8010E948D109881890F88830A
:1028600081E090E0DF91CF911F910F91089508953D
:1028700090E080E00895FF920F931F93CF93DF9332
:10288000F82E062FC7E0D0E010E061E0802F0E9414
:1028900036098F2D0E940D090C2E01C0880F0A9455
:1028A000EAF7182B60E0802F0E943609219768F71D
:1028B000812FDF91CF911F910F91FF900895EF929B
:1028C000FF920F931F93CF93DF9380915E050E9439
:1028D0000D09892B31F060E070E0CB010E94C50941
:1028E000F4CFDFB7F89460915D0580915E050E949A
:1028F0003B14082F60915D0580915E050E943B149A
:10290000C82F60915D0580915E050E943B14182FD1
:10291000F12CE12C80915F058E151F0479F070F089
:1029200061E080915D050E94360960E080915D055F
:102930000E9436098FEFE81AF80AECCFDFBF6C2F40
:1029400070E090E080E0982F872F762F6627802B0D
:10295000612B000F000B10E030E020E0302F222729
:1029600011270027602B712B822B932BDF91CF91A6
:102970001F910F91FF90EF900895CF92DF92EF9209
:10298000FF92CF93DF93C82FC12CD12C7601D0E0DA
:102990000E945F14C60ED71EE81EF91E60E070E0AC
:1029A000CB010E94C509DF5FCD13F2CF2C2F30E0A1
:1029B00050E040E0C701B6010E94C924CA01B90134
:1029C000DF91CF91FF90EF90DF90CF9008950F931C
:1029D0001F93CF93DF930E94BD14CBE5D5E00D810B
:1029E0001E812F813885601B710B820B930B0E9417
:1029F0006C2329853A854B855C850E94C922DF912D
:102A0000CF911F910F910895FC0101900020E9F7EB
:102A10003197AF01481B590BBC018EEA93E00C942F
:102A2000F8098F929F92AF92BF920F931F93CF930B
:102A3000DF93CDB7DEB7A1970FB6F894DEBF0FBE18
:102A4000CDBF19A2423008F44AE08E010F5D1F4F3E
:102A5000842E912CB12CA12CA50194010E94A724B5
:102A6000E62FB901CA01EA30F4F4E05DD801EE9333
:102A70008D01232B242B252B79F790E080E01097F4
:102A800019F0CD010E940415A1960FB6F894DEBF8F
:102A90000FBECDBFDF91CF911F910F91BF90AF902F
:102AA0009F908F900895E95CE1CF4F925F926F9273
:102AB0007F928F929F92AF92BF92CF92DF92EF92CE
:102AC000FF920F931F93CF936B017C01742EAC0187
:102AD0009B010E948E24882399F089EA91E0CF918E
:102AE0001F910F91FF90EF90DF90CF90BF90AF902C
:102AF0009F908F907F906F905F904F900C940415F3
:102B000046015701E894B7F82FEF3FEF4FE75FE733
:102B1000C501B4010E948E2481110DC02FEF3FEF3B
:102B20004FE75FE7C501B4010E94C42218161CF4E8
:102B30008DEA91E0D4CF2FEF3FEF4FE75FE4C7017D
:102B4000B6010E941C2418161CF481EB91E0C7CF3B
:102B50002FEF3FEF4FE75FECC701B6010E94C422A1
:102B600087FDF3CF20E030E0A901C701B6010E9444
:102B7000C42210E000E087FF0AC06DE28EEA93E015
:102B80000E94980A8C01F7FAF094F7F8F094C0E0EC
:102B900060E070E080E09FE37C1641F020E030E0F0
:102BA00040E251E40E94C922CF5FF6CFA70196010F
:102BB0000E9458222B013C010E943B234B015C01E7
:102BC0004AE00E9411157C01E00EF11ECC23C1F1F8
:102BD000C501B4010E946A239B01AC01C301B2018B
:102BE0000E9457224B015C016EE28EEA93E00E9444
:102BF000980AE80EF91EC15018F120E030E040E2DA
:102C000051E4C501B4010E9421242B013C010E9422
:102C10003B234B01B12CA12C4AE0C501B4010E9419
:102C20001115E80EF91EC501B4010E946A239B012B
:102C3000AC01C301B2010E9457224B015C01DBCF02
:102C4000C701CF911F910F91FF90EF90DF90CF9030
:102C5000BF90AF909F908F907F906F905F904F90BC
:102C60000895CF93DF930E945515EC0185EB91E019
:102C70000E9404158C0F9D1FDF91CF9108950C9435
:102C80000415CF92DF92EF92FF92CF93DF936B0107
:102C90007C01F7FE1FC06DE28EEA93E00E94980A65
:102CA000EC0166277727CB016C197D098E099F09F6
:102CB0004AE00E941115C80FD91F85EB91E00E94D0
:102CC00004158C0F9D1FDF91CF91FF90EF90DF9047
:102CD000CF9008954AE00E941115EC01EECFCF93FA
:102CE000DF93CBE5D5E081E08C8380E20E94BD14C8
:102CF00060939D0370939E0380939F039093A00322
:102D000088EB91E00E943F1660919D0370919E03B5
:102D100080919F039091A0030E94411682E08C83D2
:102D200080E20E94BD146093530370935403809318
:102D300055039093560384EC91E00E943F166091F6
:102D400053037091540380915503909156030E9450
:102D50004116DF91CF9108950C94B825FC01A08114
:102D6000B18150962C9183AD38E0839FC00111242E
:102D7000289FA001299F500D112470E060E081ADD3
:102D800092AD0C9441261F93CF93DF93EC010E94E8
:102D9000E8111CAD8BAD180FE881F98181891817F6
:102DA00068F0EC81FD8130E020E040E060E1CE01A0
:102DB000099580E0DF91CF911F910895FE01E558BC
:102DC000FF4F8081882319F0CE010E94AE16612F3B
:102DD000CE010E94D51181E0EDCFCF93DF93EC01BE
:102DE000FC01E558FF4F8081882319F0CE010E9435
:102DF000AE1660E0CE01DF91CF910C94D5112F92E9
:102E00003F924F925F926F927F928F929F92AF927A
:102E1000BF92CF92DF92EF92FF920F931F93CF93C7
:102E2000DF93CDB7DEB7EF970FB6F894DEBF0FBED6
:102E3000CDBF4E0126E1820E911C609199037091E5
:102E40009A0380919B0390919C03840122E04AE0C5
:102E50000E94CB1FE7E5EE2EE3E0FE2E870160E047
:102E600070E0CB01F80121913191419151918F0195
:102E70000E945822F3E007391F07A1F75E0124E200
:102E8000A20EB11C20E030E040E85DE30E94212466
:102E9000850122E04AE00E94CB1F0E948C136E0144
:102EA00032E3C30ED11C860122E04AE00E94CB1F10
:102EB00080ED91E00E943F1660E070E0CB01F701E9
:102EC00021913191419151917F010E945822F7E95E
:102ED000EF16F3E0FF0699F720E030E040E85DE30D
:102EE0000E94212442E00E9455158BED91E00E9442
:102EF0003F160E948C1342E050E00E9431168BED89
:102F000094E00E94ED1636EE432E31E0532E45E15B
:102F1000342E8E010F5F1F4F50E8652E712C63EF2A
:102F2000E62E61E0F62E70E8272E8091A1039091A5
:102F3000A203019709F48DC081E792E09F938F93DC
:102F40005F924F921F923F921F930F930E946926A8
:102F5000C8010E9485109301281B3109C90137FD62
:102F6000019695958795A8016EE00E94CD1141EFDD
:102F700051E06FE180E00E94CD119F928F92FF920D
:102F8000EF921F923F921F930F930E946926C801F0
:102F90000E948510A8016FE1322D381B832F0E94FB
:102FA000CD114AEF51E06FE280E00E94CD11BF9257
:102FB000AF92FF92EF921F923F921F930F930E9446
:102FC0006926C8010E948510A8016FE2922D981B06
:102FD000892F0E94CD114EEF51E06FE380E00E94F7
:102FE000CD11DF92CF92FF92EF921F923F921F93EB
:102FF0000F930E9469260FB6F894DEBF0FBECDBFB7
:10300000C8010E948510A8016FE3F22DF81B8F2FD5
:103010000E94CD118BED94E00E94C316811185CFE3
:10302000EF960FB6F894DEBF0FBECDBFDF91CF9104
:103030001F910F91FF90EF90DF90CF90BF90AF90D6
:103040009F908F907F906F905F904F903F902F90C8
:1030500008958EE692E072CF0F931F93CF93DF9384
:10306000EC018BED94E00E94ED1600E810E0CE013B
:103070000E9485109801281B3109C90137FD01966E
:1030800095958795AE0168E20E94CD118BED94E095
:103090000E94C3168111EBCFDF91CF911F910F9149
:1030A00008951F920F920FB60F9211242F933F9302
:1030B0008F939F93AF93BF938091A6039091A703A3
:1030C000A091A803B091A9033091A50323E0230F99
:1030D0002D3758F50196A11DB11D2093A5038093AE
:1030E000A6039093A703A093A803B093A90380918C
:1030F000AA039091AB03A091AC03B091AD030196EC
:10310000A11DB11D8093AA039093AB03A093AC03C0
:10311000B093AD03BF91AF919F918F913F912F914C
:103120000F900FBE0F901F90189526E8230F029660
:10313000A11DB11DD2CF1F920F920FB60F92112475
:103140002F933F934F935F936F937F938F939F93AF
:10315000AF93BF93EF93FF938EEA93E00E94760ABA
:10316000FF91EF91BF91AF919F918F917F916F915F
:103170005F914F913F912F910F900FBE0F901F9035
:1031800018951F920F920FB60F9211242F938F93C1
:103190009F93EF93FF93E091BE03F091BF03808173
:1031A000E091C403F091C50382FD1BC09081809122
:1031B000C7038F5F8F732091C803821741F0E0919E
:1031C000C703F0E0E255FC4F958F8093C703FF9152
:1031D000EF919F918F912F910F900FBE0F901F90A5
:1031E00018958081F4CF1F920F920FB60F92112481
:1031F0002F933F934F935F936F937F938F939F93FF
:10320000AF93BF93EF93FF938091B900887F80368F
:1032100009F44AC0F0F5883209F4A7C018F58031E6
:1032200009F49BC0B8F4882309F4F9C0883009F484
:1032300094C0FF91EF91BF91AF919F918F917F913A
:103240006F915F914F913F912F910F900FBE0F9013
:103250001F901895883109F488C0803251F7809307
:10326000280314C0803409F49DC040F48033B9F3BE
:103270008833F9F68093280385ECB0C0803509F4D3
:1032800085C0883509F496C0883499F60E94060BEB
:10329000D0CF883909F48CC038F5883729F050F43C
:1032A000883611F0803729F683E080932903109245
:1032B000270357C0883809F47BC0803919F080385B
:1032C00009F0B7CF80912703803208F071C0E091F8
:1032D000270381E08E0F809327038091BB00F0E0ED
:1032E000E95FFC4F80833DC0803B39F0E0F4803AD9
:1032F00009F479C0883A09F09CCF84E080932903CF
:103300001092040310920303E0910103F091020371
:1033100009958091030381110FC081E0809303031D
:103320001092E10209C0803C09F4A6CF883C09F460
:10333000A3CF883B09F07DCFE091040381E08E0F9D
:1033400080930403F0E0EF51FD4F80818093BB0038
:10335000909104038091030329C080914E038093D0
:10336000BB0085EC8093BC0064CF90914D038091AD
:103370004C03981758F5E0914D0381E08E0F809330
:103380004D03F0E0E45DFC4F8081E9CFE0914D0317
:1033900081E08E0F80934D038091BB00F0E0E45DEF
:1033A000FC4F808390914D0380914C039817C8F295
:1033B00085E8D8CFE0914D0381E08E0F80934D03D7
:1033C0008091BB00F0E0E45DFC4F808380912B0393
:1033D00081115CCF81E080932A0384EA8093BC0052
:1033E0001092290326CF85EC8093BC00109229030C
:1033F00080912703803230F4E0912703F0E0E95F09
:10340000FC4F10826091270370E0E0910503F0917A
:10341000060387E093E00995109227030ACF1092E4
:10342000280334CFCF931092B1031092B00388EEEB
:1034300093E0A0E0B0E08093B2039093B303A09335
:10344000B403B093B5032FE631E03093AF0320937C
:10345000AE0325EC30E03093BB032093BA0324EC99
:1034600030E03093BD032093BC0320EC30E0309378
:10347000BF032093BE0321EC30E03093C1032093BF
:10348000C00322EC30E03093C3032093C20326EC48
:1034900030E03093C5032093C4031092C703109209
:1034A000C8031092C9031092CA0310924E041092DE
:1034B0004D0480934F0490935004A0935104B09313
:1034C000520481E891E090934C0480934B0480E196
:1034D0008093680581E090E0A0E0B0E0809369050A
:1034E00090936A05A0936B05B0936C0580936D056E
:1034F00080936E058FE991E090935C0580935B0566
:103500001092600510926105109262051092630599
:1035100080E090E0A0E8BFE38093640590936505A8
:10352000A0936605B09367051092DA041092D9044F
:103530008DE698E0909358058093570510925905B1
:1035400010925A051092F40483E991E09093D80404
:103550008093D7041092DC041092DB041092F004E4
:103560001092F3041092E7041092E8041092E90418
:103570001092EA048FEF8093F1048093F604EAEF4F
:10358000F4E080E195E0CFEFC1938E179F07E1F75C
:103590008DE39CE09093E0048093DF0482E39DE060
:1035A0009093E2048093E10484E492E19093E40434
:1035B0008093E30481E293E19093E6048093E50431
:1035C00030E020E040E069E08BED94E00E943D0CAB
:1035D000109228051092270587E798E0909311052F
:1035E0008093100587E594E090931505809314056A
:1035F00081E0809316051092170510923405109201
:103600005405809355058093560583EA91E0909385
:103610001305809312058BED94E00E94A80D109283
:10362000230510922505C0932405C0932605E0913B
:103630001205F09113050280F381E02D8BED94E0EB
:1036400009958AED98E090932A05809329051092B8
:103650003705C0930505C0930605C0930705CF91B4
:103660000895CF93DF93CDB7DEB7C754D1090FB616
:10367000F894DEBF0FBECDBF789484B5826084BD60
:1036800084B5816084BD85B5826085BD85B5816066
:1036900085BD80916E00816080936E0010928100E4
:1036A000809181008260809381008091810081609F
:1036B0008093810080918000816080938000809160
:1036C000B10084608093B1008091B00081608093EC
:1036D000B00080917A00846080937A0080917A00B3
:1036E000826080937A0080917A00816080937A0072
:1036F00080917A00806880937A001092C100E091F6
:10370000BE03F091BF0382E08083E091BA03F091A1
:10371000BB031082E091BC03F091BD0380E1808384
:103720001092C603E091C203F091C30386E0808348
:10373000E091C003F091C103808180618083E091BA
:10374000C003F091C103808188608083E091C00351
:10375000F091C103808180688083E091C003F09183
:10376000C10380818F7D808380916D0562E081112E
:1037700001C060E0809168050E946409809168053D
:103780000E940D099C0181E02115310509F480E0BA
:1037900080936F0580916E05882331F091E0232B93
:1037A00009F090E090936F052FB7F8948091A603ED
:1037B0009091A703A091A803B091A9032FBF809374
:1037C000720590937305A0937405B09375052091CD
:1037D0006F05209370051092710580937605909384
:1037E0007705A0937805B0937905E091DF04F09117
:1037F000E00430E020E040E06AE08BED94E00995E1
:103800008BED94E00E94ED168BED94E00E94C316C0
:103810008111FACF60E08BED94E00E94D511E09128
:10382000DF04F091E00430E020E040E06BE08BED5D
:1038300094E0099580912705909128058256914042
:1038400009F495C0E2E6F1E0F0932805E09327053E
:10385000E491E0933805E3E6F1E0E491E093390583
:10386000E4E6F1E0E491E0933A05E5E6F1E0E49185
:10387000E0933B05E6E6F1E0E491E0933C05E7E602
:10388000F1E0E491E0933D05E8E6F1E0E491E093B6
:103890003E05E9E6F1E0E491E0933F05EAE6F1E078
:1038A000E491E0934005EBE6F1E0E491E09341051B
:1038B000ECE6F1E0E491E0934205EDE6F1E0E4911D
:1038C000E0934305EEE6F1E0E491E0934405EFE692
:1038D000F1E0E491E0934505E0E7F1E0E491E09365
:1038E0004605E1E7F1E0E491E0934705E2E7F1E026
:1038F000E491E093480561E182E691E00E94BD0F0A
:1039000090934A058093490563E182E691E00E9425
:10391000BD0F90934C0580934B0565E182E691E0E5
:103920000E94BD0F90934E0580934D058091270511
:1039300090912805892BD9F08091450580935105F8
:10394000409146054093520590915005992379F096
:10395000913009F0DCC090914705891714F49093D9
:10396000510580914805841714F48093520545E170
:1039700050E061E072E0CE0101967C010E945A267F
:103980006CE072E0C7010E944826C7010E942C1813
:1039900081E092E00E943F168CE092E00E940415C4
:1039A00085EB91E00E94041560ED77E080E090E007
:1039B0000E94C5098EE080935D058FE080935E05CF
:1039C00061E08EE00E94640962E080915E050E94E1
:1039D000640981E080935F0580E192E00E942C18E9
:1039E0008DE192E00E943F1684E10E94BD140E9486
:1039F00041160E946F1680919D0390919E03A091A5
:103A00009F03B091A0038093600590936105A093FC
:103A10006205B093630580E090E4A4EFB3E4809383
:103A2000640590936505A0936605B09367058EE2E3
:103A300092E00E943F160E945F140E9441168DE1A1
:103A400092E00E943F168AE00E94BD140E94411637
:103A500087E392E00E943F1685E00E94BD1400912A
:103A60006005109161052091620530916305601B2E
:103A7000710B820B930B0E946C2342E050E00E947A
:103A8000311685E492E00E943F1685E00E94E7141B
:103A900043E050E00E94311683E592E00E94041555
:103AA00085EB91E00E9404156E0192E3C90ED11CD2
:103AB000DE0194962296BFAFAEAF22979E012A5E9A
:103AC0003F4F24963FAF2EAF2497412C512C65EFEA
:103AD000662E62E4762E53EF252E51E0352E8FB7F9
:103AE000F8948090A6039090A703A090A803B090AC
:103AF000A9038FBF809168050E940D0920916E0572
:103B0000211120C021E0892B01F520E01EC0309159
:103B1000420520914405082E000C990B622F022EBD
:103B2000000C770B630F711D37FD7A958617970789
:103B30001CF4320F3093510524170CF018CF20934A
:103B4000520515CF21E0892B01F7809176059091E0
:103B50007705A0917805B0917905B501A401481BBE
:103B6000590B6A0B7B0B8091690590916A05A091B6
:103B70006B05B0916C05481759076A077B0708F079
:103B800071C0109271058092720590927305A09297
:103B90007405B092750580916F052091A303309153
:103BA000A4032115310509F473C02130310509F44E
:103BB000BBC08091A1039091A203009709F0C0C0FF
:103BC00031E030935F0580919D0390919E03A09119
:103BD0009F03B091A0038093600590936105A0932B
:103BE0006205B093630580E090E4A4EFB3E48093B2
:103BF000640590936505A0936605B093670580E220
:103C00000E94E7146093990370939A0380939B0337
:103C100090939C032091970330919803F901EE0F44
:103C2000FF1FEE0FFF1FE95AFC4F608371838283F1
:103C30009383C901019660E170E00E949324909300
:103C40009803809397030E94FF1620E030E0232B17
:103C500009F445CF0E94620A882309F43CCF0E94F0
:103C6000000039CF80916F058093700520936F0518
:103C7000922F982790937105281709F484CF80928A
:103C8000760590927705A0927805B09279057BCF62
:103C900081110AC080917105882331F08DE592E091
:103CA0000E942C180E946F1680916F05882309F4DA
:103CB00080CF8091720590917305A0917405B091A9
:103CC0007505409176055091770560917805709162
:103CD0007905841B950BA60BB70B883E9340A10575
:103CE000B10508F466CF8091A1039091A2030097DB
:103CF00069F481E090E09093A2038093A10321E016
:103D000030E03093A4032093A30353CF019739F4F9
:103D1000A2E0B0E0B093A203A093A103F0CF109271
:103D2000A2031092A103EBCF811143CF80917105C3
:103D3000882309F43ECF1092A4031092A30339CF35
:103D400081309105E1F482E080935F058091530317
:103D500090915403A0915503B09156038093600550
:103D600090936105A0936205B0936305409264054A
:103D700050926505609266057092670540CF029784
:103D800009F063CF91E090935F0580919D0390913E
:103D90009E03A0919F03B091A00380936005909330
:103DA0006105A0936205B093630580E090E4A4EF01
:103DB000B3E48093640590936505A0936605B09382
:103DC000670580E20E94E71428966CAF7DAF8EAF46
:103DD0009FAF28976093990370939A0380939B03F6
:103DE00090939C0382E080935F05809153039091B0
:103DF0005403A0915503B0915603809360059093AE
:103E00006105A0936205B0936305409264055092EA
:103E10006505609266057092670580E20E94E7146E
:103E200060934F0370935003809351039093520318
:103E3000860122E04AE028966CAD7DAD8EAD9FAD47
:103E400028970E94CB1F60914F037091500380917F
:103E50005103909152038E010C5D1F4F22E04AE006
:103E60000E94CB1F20914F0330915003409151038A
:103E7000509152036091990370919A0380919B0332
:103E800090919C030E9458220E50110922E04AE0B2
:103E90000E94CB1F8BED94E00E94ED1605E110E827
:103EA00064E672E0C7010E945326C7010E94851094
:103EB000A0E8B0E0A81BB109CD01B7FD019695952A
:103EC0008795A7016EE00E94CD1140E752E06FE1B7
:103ED00080E00E94CD11DF92CF923F922F921F92ED
:103EE0000F93FF92EF920E946926C7010E948510EE
:103EF000A7016FE1B12FB81B8B2F0E94CD1143E7B3
:103F000052E06FE280E00E94CD1122962FAD229701
:103F10002F9321963FAD21973F933F922F921F926F
:103F20000F93FF92EF920E946926C7010E948510AD
:103F3000A7016FE2912F981B892F0E94CD114CE6AB
:103F400052E06FE380E00E94CD112496AFAD24973C
:103F5000AF932396BFAD2397BF933F922F921F92AB
:103F60000F93FF92EF920E946926C7010E9485106D
:103F7000A7016FE3212F281B822F0E94CD118BED0B
:103F800094E00E94C3160FB6F894DEBF0FBECDBFFB
:103F9000811186CF5ACEEF920F931F93CF93DF9369
:103FA000E80134E047FD34E1042E000C550B57FFC7
:103FB00003C0519541955109E32E022F242FAE01E4
:103FC0000E94E91FCE01DF91CF911F910F91EF90D9
:103FD0000895A9E0B0E0EFEEFFE10C9426226A011B
:103FE000F22EB02E102FFBE3AF2EA01608F41BE329
:103FF0001F5F012F27E0AE014F5F5F4F0E944821F6
:10400000BC018981982F9970913009F43FC09BE2DF
:10401000E1FC04C09E2D9170E0FC3AC05E2D507111
:10402000E82FE87083FF46C084E0911101C083E06F
:10403000EF2DE81B8F1508F0E0E0D6018E2F20E26F
:10404000552351F1992329F0D6019C93C60101967D
:104050006C0196012D5F3F4FE2FE24C08EE4D60135
:104060008C9391E411969C93119712968C93D9019D
:104070008E2F90E281111BC0E20FF32FF11D1082F1
:104080008EEF9FEF2996ECE00C9442229DE2C6CF82
:1040900090E2C4CF2D9381508111FCCFCE0ED11C64
:1040A000E0E0D0CF8EE6D6018C9391E6DBCF9D93F6
:1040B0008150E0CF482F447082FF3DC084E09111D1
:1040C00001C083E08F1510F4EF2DE81BD6018E2F71
:1040D00020E2552309F1992329F0D6019C93C601CA
:1040E00001966C0196012D5F3F4FE2FE1BC089E4F3
:1040F000D6018C938EE411968C93119786E41296D8
:104100008C93D9018E2F90E2882309F4B5CF9D932B
:104110008150FACF2D9381508111FCCFCE0ED11C4E
:10412000E0E0D9CF89E6D6018C938EE611968C9388
:10413000119786E6E4CF9B0177FF02C030E020E0D4
:10414000A1E0B0E0911102C0B0E0A0E0F901319629
:10415000AE0FBF1F8B2C912CBB2009F461C0540102
:10416000EFEFAE1ABE0AAA0DBB1DFA161B0619F018
:1041700014F04F2D4A1B511188C0E3FC59C0760141
:10418000A42FB0E2A1114FC0C40ED11C992309F491
:104190005BC040E0D6011196F60190836D01552376
:1041A00009F448C0012F060F9A81582F507184FFDF
:1041B00003C0913309F4015010160CF047C00930C8
:1041C00008F008E0EEE2FE2E5B01A01AB1088501BE
:1041D0009194819491082F3F320729F4D601FC92E3
:1041E000F60131966F016217730794F102171307F6
:1041F0007CF5DB01A21BB30BAA24A394B12CAC0E5B
:10420000BD1EAA0DBB1D11968C9121503109D601FE
:10421000119628153905F4F0F60180836D01DBCF86
:10422000B12CA12CA0CFF701B1937F01A150AACF4F
:104230009111B0CFD601942F50E302C05D939150FD
:104240009111FCCFC40ED11C40E0ACCF01E0BACF3D
:1042500080E3DBCF6217730731F4963388F495332C
:1042600011F4552369F0F6018083FD01842F90E25B
:10427000811108C0A40FB11D1C9290E080E002CF14
:1042800081E3F1CF91938150F3CF911183CF8ACF06
:10429000283008F027E03327DA01990F311D87FD18
:1042A000916000966105710539F432602E5F3D938F
:1042B00030E32A95E1F708959F3F30F0803871058B
:1042C000610509F03C5F3C5F3D93913008F08068E8
:1042D000911DDF93CF931F930F93FF92EF92192FAE
:1042E000987F9695E92F96959695E90FFF27EE53BF
:1042F000FF4F99273327EE24FF24A701E7010590FC
:104300000894079428F4360FE71EF81E491F511D24
:10431000660F771F881F991F0694A1F705900794D1
:1043200028F4E70EF81E491F561FC11D770F881F7E
:10433000991F661F0694A1F70590079428F4F80EBC
:10434000491F561FC71FD11D880F991F661F771F52
:104350000694A1F70590079420F4490F561FC71F34
:10436000D81F990F661F771F881F0694A9F784919D
:104370001095177041F0D695C79557954795F794C6
:10438000E7941A95C1F7E8E6F0E068941590159166
:1043900035916591959105907FE27395E118F10A49
:1043A000430B560BC90BD009C0F7E10CF11E431F9C
:1043B000561FC91FD01D7EF4703311F48A95E6CFC5
:1043C000E894015030F0080F0AF40027021708F4AF
:1043D000202F2395022F7A3328F079E37D932A95B5
:1043E000E9F710C07D932A9589F60694979567950D
:1043F000379517951794E118F10A430B560BC90B23
:10440000D00998F023957E9173957A3308F070E384
:104410007C932013B8F77E9170617D9330F0839583
:1044200071E37D9370E32A95E1F71124EF90FF90FB
:104430000F911F91CF91DF91992787FD9095089556
:104440002F923F924F925F926F927F928F929F92A4
:10445000AF92BF92CF92DF92EF92FF920F931F9392
:10446000CF93DF93CDB7DEB7CA1BDB0B0FB6F89443
:10447000DEBF0FBECDBF09942A88398848885F8483
:104480006E847D848C849B84AA84B984C884DF80F4
:10449000EE80FD800C811B81AA81B981CE0FD11DD8
:1044A0000FB6F894DEBF0FBECDBFED010895505892
:1044B000BB27AA270E946F220C94E2230E94D423D8
:1044C00038F00E94DB2320F039F49F3F19F426F4E2
:1044D0000C94D1230EF4E095E7FB0C94CB23E92F49
:1044E0000E94F32358F3BA176207730784079507EE
:1044F00020F079F4A6F50C9415240EF4E0950B2E1B
:10450000BA2FA02D0B01B90190010C01CA01A00125
:104510001124FF27591B99F0593F50F4503E68F180
:104520001A16F040A22F232F342F4427585FF3CFC1
:10453000469537952795A795F0405395C9F77EF492
:104540001F16BA0B620B730B840BBAF09150A1F0DB
:10455000FF0FBB1F661F771F881FC2F70EC0BA0F61
:10456000621F731F841F48F4879577956795B795E9
:10457000F7959E3F08F0B0CF9395880F08F09927E4
:10458000EE0F9795879508950E94A72308F481E080
:1045900008950E94DD220C94E2230E94DB2358F050
:1045A0000E94D42340F029F45F3F29F00C94CB23E0
:1045B00051110C9416240C94D1230E94F32368F318
:1045C0009923B1F3552391F3951B550BBB27AA27CC
:1045D00062177307840738F09F5F5F4F220F331F06
:1045E000441FAA1FA9F335D00E2E3AF0E0E832D0CE
:1045F00091505040E695001CCAF72BD0FE2F29D0D1
:10460000660F771F881FBB1F261737074807AB07A2
:10461000B0E809F0BB0B802DBF01FF2793585F4F17
:104620003AF09E3F510578F00C94CB230C9416245D
:104630005F3FE4F3983ED4F3869577956795B795F9
:10464000F7959F5FC9F7880F911D9695879597F904
:104650000895E1E0660F771F881FBB1F621773077D
:104660008407BA0720F0621B730B840BBA0BEE1F92
:1046700088F7E09508950E94FB2388F09F5798F0F3
:10468000B92F9927B751B0F0E1F0660F771F881F57
:10469000991F1AF0BA95C9F714C0B13091F00E9471
:1046A0001524B1E008950C941524672F782F8827DE
:1046B000B85F39F0B93FCCF3869577956795B39598
:1046C000D9F73EF490958095709561957F4F8F4F07
:1046D0009F4F0895E89409C097FB3EF4909580950C
:1046E000709561957F4F8F4F9F4F9923A9F0F92FB8
:1046F00096E9BB279395F695879577956795B79536
:10470000F111F8CFFAF4BB0F11F460FF1BC06F5F1B
:104710007F4F8F4F9F4F16C0882311F096E911C02D
:10472000772321F09EE8872F762F05C0662371F04E
:1047300096E8862F70E060E02AF09A95660F771F62
:10474000881FDAF7880F9695879597F90895990F3E
:104750000008550FAA0BE0E8FEEF16161706E8074B
:10476000F907C0F012161306E407F50798F0621B6C
:10477000730B840B950B39F40A2661F0232B242B41
:10478000252B21F408950A2609F4A140A6958FEF60
:10479000811D811D089597F99F6780E870E060E0B2
:1047A00008959FEF80EC089500240A9416161706CA
:1047B00018060906089500240A9412161306140612
:1047C00005060895092E0394000C11F4882352F075
:1047D000BB0F40F4BF2B11F460FF04C06F5F7F4F2D
:1047E0008F4F9F4F089557FD9058440F551F59F014
:1047F0005F3F71F04795880F97FB991F61F09F3FCE
:1048000079F087950895121613061406551FF2CFF6
:104810004695F1DF08C0161617061806991FF1CF46
:1048200086957105610508940895E894BB2766276D
:104830007727CB0197F908950E94A72308F48FEFFB
:1048400008950E9434240C94E2230E94D42338F06B
:104850000E94DB2320F0952311F00C94CB230C94C1
:10486000D12311240C9416240E94F32370F3959FF6
:10487000C1F3950F50E0551F629FF001729FBB2757
:10488000F00DB11D639FAA27F00DB11DAA1F649FF3
:104890006627B00DA11D661F829F2227B00DA11DA6
:1048A000621F739FB00DA11D621F839FA00D611D2C
:1048B000221F749F3327A00D611D231F849F600D4D
:1048C000211D822F762F6A2F11249F5750409AF076
:1048D000F1F088234AF0EE0FFF1FBB1F661F771F02
:1048E000881F91505040A9F79E3F510580F00C94CD
:1048F000CB230C9416245F3FE4F3983ED4F38695C3
:1049000077956795B795F795E7959F5FC1F7FE2B6C
:10491000880F911D9695879597F908950E94A72372
:10492000880B990B089597FB072E16F4009407D077
:1049300077FD09D00E94F32407FC05D03EF4909542
:1049400081959F4F0895709561957F4F0895A1E2DD
:104950001A2EAA1BBB1BFD010DC0AA1FBB1FEE1FF9
:10496000FF1FA217B307E407F50720F0A21BB30B44
:10497000E40BF50B661F771F881F991F1A9469F7C0
:1049800060957095809590959B01AC01BD01CF011C
:104990000895052E97FB1EF400940E94E02457FD15
:1049A00007D00E94A72407FC03D04EF40C94E02407
:1049B00050954095309521953F4F4F4F5F4F08954B
:1049C00090958095709561957F4F8F4F9F4F08957B
:1049D0000E940D25A59F900DB49F900DA49F800D62
:1049E000911D11240895AA1BBB1B51E107C0AA1FEA
:1049F000BB1FA617B70710F0A61BB70B881F991F80
:104A00005A95A9F780959095BC01CD010895EE0FB8
:104A1000FF1F0590F491E02D0994A29FB001B39F70
:104A2000C001A39F700D811D1124911DB29F700DB7
:104A3000811D1124911D08950F931F93CF93DF9330
:104A40008230910510F482E090E0E0917C05F091D5
:104A50007D0530E020E0B0E0A0E0309799F421152A
:104A6000310509F44AC0281B390B24303105D8F52B
:104A70008A819B816115710589F1FB019383828392
:104A8000FE0111C0408151810281138148175907ED
:104A9000E0F04817590799F4109761F012960C93BB
:104AA000129713961C933296CF01DF91CF911F91ED
:104AB0000F91089500937C0510937D05F4CF211587
:104AC000310551F04217530738F0A901DB019A0173
:104AD000BD01DF01F801C1CFEF01F9CF90937D0552
:104AE00080937C05CDCFFE01E20FF31F819391935C
:104AF0002250310939832883D7CF20917A0530910C
:104B00007B05232B41F42091020130910301309366
:104B10007B0520937A052091000130910101211538
:104B2000310541F42DB73EB7409104015091050184
:104B3000241B350BE0917A05F0917B05E217F30712
:104B4000A0F42E1B3F0B2817390778F0AC014E5FFD
:104B50005F4F2417350748F04E0F5F1F50937B05BA
:104B600040937A05819391939FCFF0E0E0E09CCF52
:104B7000CF93DF930097E9F0FC0132971382128202
:104B8000A0917C05B0917D05ED0130E020E010970B
:104B9000A1F420813181820F931F20917A053091F9
:104BA0007B052817390709F061C0F0937B05E09376
:104BB0007A05DF91CF910895EA01CE17DF07E8F576
:104BC0004A815B819E0141155105B1F7E901FB83E3
:104BD000EA8349915991C40FD51FEC17FD0761F481
:104BE000808191810296840F951FE90199838883C2
:104BF000828193819B838A83F0E0E0E012968D911D
:104C00009C9113970097B9F52D913C911197CD0187
:104C10000296820F931F20917A0530917B05281709
:104C2000390739F6309751F510927D0510927C05C1
:104C3000B0937B05A0937A05BCCFD383C283408118
:104C40005181840F951FC817D90761F44E5F5F4FDC
:104C500088819981480F591F518340838A819B81A4
:104C6000938382832115310509F0B0CFF0937D0540
:104C7000E0937C059ECFFD01DC01C0CF1382128240
:104C8000D7CFDC0101C06D9341505040E0F708954B
:104C9000FB01DC010D900020E9F7119701900D92C6
:104CA0000020E1F70895FB01DC0101900D92002046
:104CB000E1F70895FB01DC014150504048F00190BC
:104CC0000D920020C9F701C01D9241505040E0F7FD
:104CD0000895AEE0B0E0EFE6F6E20C942E220D89E6
:104CE0001E898F89988D26E02C831A83098397FF6C
:104CF00002C080E090E801979E838D83AE01455EFF
:104D00005F4F698D7A8DCE0101960E9499264D8163
:104D10005E8157FD0AC02F813885421753070CF476
:104D20009A01020F131FF80110822E96E4E00C94F2
:104D30004A22ABE0B0E0EFE9F6E20C9420227C01DD
:104D40003B018A01FC0117821682838181FFC8C161
:104D5000CE0101965C01F7019381F30193FD8591EA
:104D600093FF81913F01882309F453C1853239F4BF
:104D700093FD859193FF81913F01853229F4B7011D
:104D800090E00E948928E7CF912C212C312CFFE163
:104D9000F31538F08B3211F190F4803209F183323F
:104DA00029F137FC3CC020ED280F2A3050F536FEA3
:104DB00020C08AE0989E200D1124922E06C08D32CC
:104DC00091F0803371F7689430F8F30193FD859189
:104DD00093FF81913F018111DACF21C0689431F8AE
:104DE000689432F8F2CF689433F8EFCF689434F8CF
:104DF000ECCFEAE02E9E200D1124222E689435F887
:104E0000E4CF8E3229F436FC04C1689436F8DDCF45
:104E10008C3619F4689437F8D8CF8836B1F2982FC9
:104E20009F7D95549330E0F08336A1F18337C1F133
:104E3000833509F063C02801F2E04F0E511CF801E0
:104E4000C080D180692D70E036FC02C06FEF7FEF2B
:104E5000C6010E9473284C01689437F882010AC089
:104E60000C5F1F4FFFE3F98388248394912C650125
:104E7000E89437F833FE2DC0522C8114910471F55B
:104E8000552009F468CFB70180E290E00E9489289C
:104E90005A94F6CFF801808189830E5F1F4FE4CFCB
:104EA0002801F2E04F0E511CF801C080D180692D1D
:104EB00070E036FC02C06FEF7FEFC6010E947E28D3
:104EC0004C018201D5CFB70180E290E00E94892891
:104ED0002A942814190409F0B0F7CECFF60137FC54
:104EE000859137FE81916F01B70190E00E9489287A
:104EF00051105A94F1E08F1A9108BFCF843619F0FF
:104F0000893609F077C0F80137FE6BC06081718186
:104F1000828193810C5F1F4FF32DFF763F2E97FF09
:104F200009C090958095709561957F4F8F4F9F4FE9
:104F3000689437F82AE030E0A5010E94B928C82E0D
:104F4000CA188C2C432C36FE0CC0E89440F8C914C7
:104F500040F434FE05C032FC03C0F32DFE7E4F2E1C
:104F6000892C44FE95C0FE01EC0DF11D808180333B
:104F700009F087C0242D297E422E842D8870582E5A
:104F800043FC95C040FE8FC09C2C821418F42C0C5E
:104F9000922C981844FE91C0B70180E390E00E94E3
:104FA000892842FE09C088E790E041FE02C088E5FA
:104FB00090E0B7010E948928C91408F48AC0CA94F5
:104FC000D12C9FEFC91AD90ACA0CDB1CF6018291B9
:104FD0006F01B70190E00E948928AC14BD04B1F7BD
:104FE0004FCF60817181072E000C880B990B0E5FEB
:104FF0001F4F92CFD32CE894D4F82AE030E08537C5
:1050000039F1232D297FD22E8F3601F148F48835CE
:10501000A9F0F701868197812B96E2E10C943C225E
:10502000803749F08837A9F7D4FE02C06894D2F8D7
:1050300020E130E00DC06894D4F8F6CF34FE03C010
:10504000822F8660D82E20E132E002C028E030E0D6
:10505000F801D7FE0FC060817181828193810C5F5E
:105060001F4FA5010E94B928C82ECA183D2CE894EC
:1050700037F867CF6081718190E080E00E5F1F4F4D
:10508000F0CF42FC02C0839478CF8394839475CF91
:10509000842D867809F471CFF6CFB70180E290E0D5
:1050A0000E94892883948214C0F3512C73CF522C10
:1050B0005818821408F46ECFF8CF842D867809F43E
:1050C0007BCF8BE241FE80E247FC8DE2B70190E0AE
:1050D00071CFB70180E390E00E9489289A946CCF49
:1050E0008FEF9FEF99CFFC01059061507040011048
:1050F000D8F7809590958E0F9F1F0895FC01615001
:10510000704001900110D8F7809590958E0F9F1FE9
:1051100008950F931F93CF93DF93182F092FEB015F
:105120008B8181FD09C01FEF0FEF812F902FDF9141
:10513000CF911F910F91089582FF14C02E813F815E
:105140008C819D81281739073CF4E881F981CF01D2
:1051500001969983888310838E819F8101969F8316
:105160008E83E3CFE885F985812F0995892BA1F3FB
:10517000DACFFA01AA27283051F1203181F1E894E1
:105180006F936E7F6E5F7F4F8F4F9F4FAF4FB1E03A
:105190003ED0B4E03CD0670F781F891F9A1FA11D35
:1051A000680F791F8A1F911DA11D6A0F711D811D36
:1051B000911DA11D20D009F468943F912AE0269FFB
:1051C00011243019305D3193DEF6CF010895462F5A
:1051D0004770405D4193B3E00FD0C9F7F6CF462F3B
:1051E0004F70405D4A3318F0495D31FD40524193A4
:1051F00002D0A9F7EACFB4E0A69597958795779561
:105200006795BA95C9F700976105710508959B01E7
:10521000AC010A2E06945795479537952795BA9570
:10522000C9F7620F731F841F951FA01D0895F8947E
:02523000FFCFAE
:1052320000007E0580001815A015C019FF1815A1E1
:1052420015C819FF1815AE19FF1815AF19FF181553
:10525200AE15D5168015A8163F15D31600154015A4
:105262008D16141520160015A115C815DA1612157B
:105272008116CF15D916F115DB1640152E15A4157A
:10528200A619FF0001140A6464323200127A000087
:1052920004289610080000800040000000000098DA
:1052A2000AF809250AE50A560A340A480A000000E3
:1052B20000900B630B3814390B5C0B490B3A0B0053
:1052C2000000000E14E61338143714000000000525
:1052D2000BAC16A80D130E9C0D6E616E00696E6606
:1052E200006F7666000D0A004F6666736574204192
:1052F2003A2009004F666673657420423A2009001D
:10530200417665726167653A2009000953707265DA
:1053120061643A20090043757272656E74202573C8
:1053220000490025313073B541006176670064B1F0
:10533200007541206D65746572207600302E310053
:10534200496E697469616C697A696E670072656138
:105352006420617665726167653A200909007265A9
:1053620061643A200909006765742076616C75658D
:105372003A2009090067657420756E6974733A20D2
:1053820009090052656164696E67733A004F666687
:105392007365740043757272656E7420412B42000E
:0653A200494100494200F0
:00000001FF
